{
  "_format": "hh-sol-artifact-1",
  "contractName": "TokenFaucet",
  "sourceName": "contracts/TokenFaucet.sol",
  "abi": [
    {
      "inputs": [
        {
          "internalType": "address",
          "name": "tokenAddress",
          "type": "address"
        }
      ],
      "stateMutability": "nonpayable",
      "type": "constructor"
    },
    {
      "anonymous": false,
      "inputs": [
        {
          "indexed": false,
          "internalType": "bool",
          "name": "paused",
          "type": "bool"
        }
      ],
      "name": "FaucetPaused",
      "type": "event"
    },
    {
      "anonymous": false,
      "inputs": [
        {
          "indexed": true,
          "internalType": "address",
          "name": "user",
          "type": "address"
        },
        {
          "indexed": false,
          "internalType": "uint256",
          "name": "amount",
          "type": "uint256"
        },
        {
          "indexed": false,
          "internalType": "uint256",
          "name": "timestamp",
          "type": "uint256"
        }
      ],
      "name": "TokensClaimed",
      "type": "event"
    },
    {
      "inputs": [],
      "name": "COOLDOWN_TIME",
      "outputs": [
        {
          "internalType": "uint256",
          "name": "",
          "type": "uint256"
        }
      ],
      "stateMutability": "view",
      "type": "function"
    },
    {
      "inputs": [],
      "name": "FAUCET_AMOUNT",
      "outputs": [
        {
          "internalType": "uint256",
          "name": "",
          "type": "uint256"
        }
      ],
      "stateMutability": "view",
      "type": "function"
    },
    {
      "inputs": [],
      "name": "MAX_CLAIM_AMOUNT",
      "outputs": [
        {
          "internalType": "uint256",
          "name": "",
          "type": "uint256"
        }
      ],
      "stateMutability": "view",
      "type": "function"
    },
    {
      "inputs": [],
      "name": "admin",
      "outputs": [
        {
          "internalType": "address",
          "name": "",
          "type": "address"
        }
      ],
      "stateMutability": "view",
      "type": "function"
    },
    {
      "inputs": [
        {
          "internalType": "address",
          "name": "user",
          "type": "address"
        }
      ],
      "name": "canClaim",
      "outputs": [
        {
          "internalType": "bool",
          "name": "",
          "type": "bool"
        }
      ],
      "stateMutability": "view",
      "type": "function"
    },
    {
      "inputs": [],
      "name": "isPaused",
      "outputs": [
        {
          "internalType": "bool",
          "name": "",
          "type": "bool"
        }
      ],
      "stateMutability": "view",
      "type": "function"
    },
    {
      "inputs": [
        {
          "internalType": "address",
          "name": "",
          "type": "address"
        }
      ],
      "name": "lastClaimAt",
      "outputs": [
        {
          "internalType": "uint256",
          "name": "",
          "type": "uint256"
        }
      ],
      "stateMutability": "view",
      "type": "function"
    },
    {
      "inputs": [
        {
          "internalType": "address",
          "name": "user",
          "type": "address"
        }
      ],
      "name": "remainingAllowance",
      "outputs": [
        {
          "internalType": "uint256",
          "name": "",
          "type": "uint256"
        }
      ],
      "stateMutability": "view",
      "type": "function"
    },
    {
      "inputs": [],
      "name": "requestTokens",
      "outputs": [],
      "stateMutability": "nonpayable",
      "type": "function"
    },
    {
      "inputs": [
        {
          "internalType": "bool",
          "name": "_paused",
          "type": "bool"
        }
      ],
      "name": "setPaused",
      "outputs": [],
      "stateMutability": "nonpayable",
      "type": "function"
    },
    {
      "inputs": [],
      "name": "token",
      "outputs": [
        {
          "internalType": "contract IERC20Mintable",
          "name": "",
          "type": "address"
        }
      ],
      "stateMutability": "view",
      "type": "function"
    },
    {
      "inputs": [
        {
          "internalType": "address",
          "name": "",
          "type": "address"
        }
      ],
      "name": "totalClaimed",
      "outputs": [
        {
          "internalType": "uint256",
          "name": "",
          "type": "uint256"
        }
      ],
      "stateMutability": "view",
      "type": "function"
    }
  ],
  "bytecode": "0x60806040523480156200001157600080fd5b5060405162000fe438038062000fe48339818101604052810190620000379190620001b6565b600073ffffffffffffffffffffffffffffffffffffffff168173ffffffffffffffffffffffffffffffffffffffff1603620000a9576040517f08c379a0000000000000000000000000000000000000000000000000000000008152600401620000a09062000249565b60405180910390fd5b806000806101000a81548173ffffffffffffffffffffffffffffffffffffffff021916908373ffffffffffffffffffffffffffffffffffffffff16021790555033600160006101000a81548173ffffffffffffffffffffffffffffffffffffffff021916908373ffffffffffffffffffffffffffffffffffffffff1602179055506000600160146101000a81548160ff021916908315150217905550506200026b565b600080fd5b600073ffffffffffffffffffffffffffffffffffffffff82169050919050565b60006200017e8262000151565b9050919050565b620001908162000171565b81146200019c57600080fd5b50565b600081519050620001b08162000185565b92915050565b600060208284031215620001cf57620001ce6200014c565b5b6000620001df848285016200019f565b91505092915050565b600082825260208201905092915050565b7f496e76616c696420746f6b656e20616464726573730000000000000000000000600082015250565b600062000231601583620001e8565b91506200023e82620001f9565b602082019050919050565b60006020820190508181036000830152620002648162000222565b9050919050565b610d69806200027b6000396000f3fe608060405234801561001057600080fd5b50600436106100b45760003560e01c8063bf3506c111610071578063bf3506c114610169578063e362b4f714610199578063ef5d9ae8146101b7578063f357df6d146101e7578063f851a44014610217578063fc0c546a14610235576100b4565b806303822d3b146100b957806316c38b3c146100e9578063359cf2b714610105578063766976401461010f5780637d2632451461012d578063b187bd261461014b575b600080fd5b6100d360048036038101906100ce91906108f5565b610253565b6040516100e0919061093b565b60405180910390f35b61010360048036038101906100fe919061098e565b61026b565b005b61010d61034f565b005b610117610662565b604051610124919061093b565b60405180910390f35b61013561066f565b604051610142919061093b565b60405180910390f35b610153610676565b60405161016091906109ca565b60405180910390f35b610183600480360381019061017e91906108f5565b61068d565b60405161019091906109ca565b60405180910390f35b6101a161076d565b6040516101ae919061093b565b60405180910390f35b6101d160048036038101906101cc91906108f5565b61077a565b6040516101de919061093b565b60405180910390f35b61020160048036038101906101fc91906108f5565b610792565b60405161020e919061093b565b60405180910390f35b61021f610848565b60405161022c91906109f4565b60405180910390f35b61023d61086e565b60405161024a9190610a6e565b60405180910390f35b60026020528060005260406000206000915090505481565b600160009054906101000a900473ffffffffffffffffffffffffffffffffffffffff1673ffffffffffffffffffffffffffffffffffffffff163373ffffffffffffffffffffffffffffffffffffffff16146102fb576040517f08c379a00000000000000000000000000000000000000000000000000000000081526004016102f290610ae6565b60405180910390fd5b80600160146101000a81548160ff0219169083151502179055507f50cfd8deb0b293676ae69355a9eed053a00f81d3bd6a0ae4dc082629e6476f7f8160405161034491906109ca565b60405180910390a150565b600160149054906101000a900460ff161561039f576040517f08c379a000000000000000000000000000000000000000000000000000000000815260040161039690610b52565b60405180910390fd5b683635c9adc5dea0000068056bc75e2d63100000600360003373ffffffffffffffffffffffffffffffffffffffff1673ffffffffffffffffffffffffffffffffffffffff168152602001908152602001600020546103fd9190610ba1565b111561043e576040517f08c379a000000000000000000000000000000000000000000000000000000000815260040161043590610c21565b60405180910390fd5b62015180600260003373ffffffffffffffffffffffffffffffffffffffff1673ffffffffffffffffffffffffffffffffffffffff1681526020019081526020016000205461048c9190610ba1565b4210156104ce576040517f08c379a00000000000000000000000000000000000000000000000000000000081526004016104c590610c8d565b60405180910390fd5b42600260003373ffffffffffffffffffffffffffffffffffffffff1673ffffffffffffffffffffffffffffffffffffffff1681526020019081526020016000208190555068056bc75e2d63100000600360003373ffffffffffffffffffffffffffffffffffffffff1673ffffffffffffffffffffffffffffffffffffffff168152602001908152602001600020600082825461056a9190610ba1565b9250508190555060008054906101000a900473ffffffffffffffffffffffffffffffffffffffff1673ffffffffffffffffffffffffffffffffffffffff166340c10f193368056bc75e2d631000006040518363ffffffff1660e01b81526004016105d5929190610cad565b600060405180830381600087803b1580156105ef57600080fd5b505af1158015610603573d6000803e3d6000fd5b505050503373ffffffffffffffffffffffffffffffffffffffff167f9923b4306c6c030f2bdfbf156517d5983b87e15b96176da122cd4f2effa4ba7b68056bc75e2d6310000042604051610658929190610cd6565b60405180910390a2565b68056bc75e2d6310000081565b6201518081565b6000600160149054906101000a900460ff16905090565b6000600160149054906101000a900460ff16156106ad5760009050610768565b62015180600260008473ffffffffffffffffffffffffffffffffffffffff1673ffffffffffffffffffffffffffffffffffffffff168152602001908152602001600020546106fb9190610ba1565b42101561070b5760009050610768565b683635c9adc5dea00000600360008473ffffffffffffffffffffffffffffffffffffffff1673ffffffffffffffffffffffffffffffffffffffff16815260200190815260200160002054106107635760009050610768565b600190505b919050565b683635c9adc5dea0000081565b60036020528060005260406000206000915090505481565b6000683635c9adc5dea00000600360008473ffffffffffffffffffffffffffffffffffffffff1673ffffffffffffffffffffffffffffffffffffffff16815260200190815260200160002054106107ec5760009050610843565b600360008373ffffffffffffffffffffffffffffffffffffffff1673ffffffffffffffffffffffffffffffffffffffff16815260200190815260200160002054683635c9adc5dea000006108409190610cff565b90505b919050565b600160009054906101000a900473ffffffffffffffffffffffffffffffffffffffff1681565b60008054906101000a900473ffffffffffffffffffffffffffffffffffffffff1681565b600080fd5b600073ffffffffffffffffffffffffffffffffffffffff82169050919050565b60006108c282610897565b9050919050565b6108d2816108b7565b81146108dd57600080fd5b50565b6000813590506108ef816108c9565b92915050565b60006020828403121561090b5761090a610892565b5b6000610919848285016108e0565b91505092915050565b6000819050919050565b61093581610922565b82525050565b6000602082019050610950600083018461092c565b92915050565b60008115159050919050565b61096b81610956565b811461097657600080fd5b50565b60008135905061098881610962565b92915050565b6000602082840312156109a4576109a3610892565b5b60006109b284828501610979565b91505092915050565b6109c481610956565b82525050565b60006020820190506109df60008301846109bb565b92915050565b6109ee816108b7565b82525050565b6000602082019050610a0960008301846109e5565b92915050565b6000819050919050565b6000610a34610a2f610a2a84610897565b610a0f565b610897565b9050919050565b6000610a4682610a19565b9050919050565b6000610a5882610a3b565b9050919050565b610a6881610a4d565b82525050565b6000602082019050610a836000830184610a5f565b92915050565b600082825260208201905092915050565b7f4f6e6c792061646d696e00000000000000000000000000000000000000000000600082015250565b6000610ad0600a83610a89565b9150610adb82610a9a565b602082019050919050565b60006020820190508181036000830152610aff81610ac3565b9050919050565b7f4661756365742069732070617573656400000000000000000000000000000000600082015250565b6000610b3c601083610a89565b9150610b4782610b06565b602082019050919050565b60006020820190508181036000830152610b6b81610b2f565b9050919050565b7f4e487b7100000000000000000000000000000000000000000000000000000000600052601160045260246000fd5b6000610bac82610922565b9150610bb783610922565b9250828201905080821115610bcf57610bce610b72565b5b92915050565b7f4c69666574696d6520636c61696d206c696d6974207265616368656400000000600082015250565b6000610c0b601c83610a89565b9150610c1682610bd5565b602082019050919050565b60006020820190508181036000830152610c3a81610bfe565b9050919050565b7f436f6f6c646f776e20706572696f64206e6f7420656c61707365640000000000600082015250565b6000610c77601b83610a89565b9150610c8282610c41565b602082019050919050565b60006020820190508181036000830152610ca681610c6a565b9050919050565b6000604082019050610cc260008301856109e5565b610ccf602083018461092c565b9392505050565b6000604082019050610ceb600083018561092c565b610cf8602083018461092c565b9392505050565b6000610d0a82610922565b9150610d1583610922565b9250828203905081811115610d2d57610d2c610b72565b5b9291505056fea264697066735822122035664fab5d2a5b6278e84cbd9b8f671c2193ea20c177231b358eaa9c3d7df9a764736f6c63430008140033",
  "linkReferences": {},
  "deployedLinkReferences": {}
}